:100000000C94F8040C9420050C9420050C94200505
:100010000C9420050C9420050C9420050C942005CC
:100020000C9420050C9420050C9420050C942005BC
:100030000C9420050C9420050C9420050C942005AC
:100040000C94040C0C9420050C94D20B0C94AC0B67
:100050000C9420050C9420050C9420050C9420058C
:100060000C9420050C94200557494E003A29004075
:10007000003A28002A002F002B002E005E0001020B
:1000800004081020408000000000003E5B4F5B3EF3
:100090003E6B4F6B3E1C3E7C3E1C183C7E3C181C4D
:1000A000577D571C1C5E7F5E1C00183C1800FFE744
:1000B000C3E7FF0018241800FFE7DBE7FF30483AEA
:1000C000060E2629792926407F050507407F05254C
:1000D0003F5A3CE73C5A7F3E1C1C08081C1C3E7FD4
:1000E00014227F22145F5F005F5F06097F017F009B
:1000F0006689956A606060606094A2FFA2940804BB
:100100007E040810207E201008082A1C08081C2ADB
:1001100008081E101010100C1E0C1E0C30383E3833
:1001200030060E3E0E06000000000000005F0000DA
:100130000007000700147F147F14242A7F2A12234B
:100140001308646236495620500008070300001C5B
:100150002241000041221C002A1C7F1C2A08083E64
:100160000808008070300008080808080000606077
:100170000020100804023E5149453E00427F4000E5
:1001800072494949462141494D331814127F1027BD
:10019000454545393C4A494931412111090736490C
:1001A000494936464949291E0000140000004034E0
:1001B00000000008142241141414141400412214E5
:1001C0000802015909063E415D594E7C1211127C0C
:1001D0007F494949363E414141227F4141413E7F6D
:1001E000494949417F090909013E414151737F084D
:1001F00008087F00417F41002040413F017F0814F3
:1002000022417F404040407F021C027F7F04081053
:100210007F3E4141413E7F090909063E4151215E31
:100220007F09192946264949493203017F01033FC5
:100230004040403F1F2040201F3F4038403F631454
:1002400008146303047804036159494D43007F4156
:1002500041410204081020004141417F0402010293
:1002600004404040404000030708002054547840B8
:100270007F284444383844444428384444287F384C
:100280005454541800087E090218A4A49C787F08CE
:1002900004047800447D40002040403D007F102849
:1002A000440000417F40007C047804787C0804040A
:1002B000783844444438FC1824241818242418FCA2
:1002C0007C08040408485454542404043F44243C47
:1002D0004040207C1C2040201C3C4030403C4428B6
:1002E0001028444C9090907C4464544C4400083650
:1002F00041000000770000004136080002010204BE
:10030000023C2623263C1EA1A161123A4040207ADD
:100310003854545559215555794121545478412127
:100320005554784020545579400C1E52721239555C
:100330005555593954545459395554545800004559
:100340007C410002457D420001457C40F029242982
:10035000F0F0282528F07C545545002054547C5456
:100360007C0A097F49324949493232484848323289
:100370004A4848303A4141217A3A42402078009D2B
:10038000A0A07D39444444393D4040403D3C24FFD9
:100390002424487E4943662B2FFC2F2BFF0929F686
:1003A00020C0887E090320545479410000447D41D7
:1003B0003048484A32384040227A007A0A0A727D30
:1003C0000D19317D2629292F28262929292630484B
:1003D0004D4020380808080808080808382F10C8B9
:1003E000ACBA2F102834FA00007B000008142A143D
:1003F0002222142A14089500220095AA005500AA6A
:10040000AA55AA55AA000000FF00101010FF001402
:100410001414FF001010FF00FF1010F010F014145F
:1004200014FC001414F700FF0000FF00FF1414F484
:1004300004FC141417101F10101F101F1414141F85
:1004400000101010F0000000001F101010101F10FE
:10045000101010F010000000FF10101010101010FD
:100460001010FF10000000FF140000FF00FF00004C
:100470001F10170000FC04F414141710171414F4C0
:1004800004F40000FF00F714141414141414F700FB
:10049000F7141414171410101F101F141414F4144C
:1004A0001010F010F000001F101F0000001F1400BB
:1004B0000000FC140000F010F01010FF10FF1414E6
:1004C00014FF141010101F00000000F010FFFFFFB9
:1004D000FFFFF0F0F0F0F0FFFFFF0000000000FF72
:1004E000FF0F0F0F0F0F38444438447C2A2A3E1464
:1004F0007E02020606027E027E026355494163388F
:1005000044443C04407E201E2006027E020299A53F
:10051000E7A5991C2A492A1C4C7201724C304A4D9D
:100520004D303048784830BC625A463D3E494949D2
:10053000007E0101017E2A2A2A2A2A44445F44447B
:1005400040514A444040444A51400000FF0103E00A
:1005500080FF000008086B6B083612362436060F41
:10056000090F06000018180000001010003040FFAE
:100570000101001F01011E00191D1712003C3C3C27
:100580003C0000000000AED5F0A83FD300408D1421
:10059000A1C8DA1281CFD9F1DB40A4A6AF20002197
:1005A000007F220007FFFFFFFFFFFFFFFFFFFFFFAE
:1005B000FFFFFFFFFFFFFFFFFFFFFFFFFFFFFFFF4B
:1005C000FFFFFFFFFFFFFBEFFF7FEF9FFDFFDEFF62
:1005D000BDFFE07FFFFFFFEFFEBFEFDFFEFFDEFFAF
:1005E00080082F7FFFFFE1EFFDDFEC01FE7FBD7F85
:1005F0007DFFAB7FFFFFFDEFFBEF83BFF6FFBBBFD0
:100600007DFBAB7FFFFFFB00F7F7EF7FF7FF37DEE8
:10061000603D6B7FFFFFFBEFC808CEF7B7EEAFE59D
:100620006FBD6B7FFFF831EFFFFDC607B7F79BAFDC
:10063000603EEB783FFFEAEFFFFFABEFB7FBBBBFDE
:100640006FBEEB7FFFFFFBEFE003AFDBB7FBBBBF92
:10065000603D6B7FFFFFFBEFFEFFEF3377FBBBBF20
:100660006FBDA97FFFFFFBEFFDDFECEFF7EFBBBF37
:10067000603DB5FFFFFFFBEFFBEFEFDFF7EFBBBF29
:100680006FBBEDDFFFFFFA007007EF27F7EFB7BF93
:100690006FBFDDDFFFFFFBFFFBF7E8FBF81FAFBF1E
:1006A000000F3E3FFFFFDFFFFFFFFFFDFFFBFFFFF0
:1006B000FFEFFFBDFFF0002180E003FEFFFDFFFC28
:1006C0000FC7FDBDBFF7FFBDBEEFFBFEFFFDFE0D7B
:1006D000EC3FFE857FF4017DBEEFFBC0030002ED21
:1006E000EFBFFEBCFFFFFFFD80E003FEFFEFDEEC8F
:1006F0000FB81FBDDFFE03E1F7EF7FFEFFEFDE0D5A
:10070000EC03DFA5DFFEFBEFF7EF7FFEFFEFBEEDB3
:10071000EFBBD89A3FFE03EF006001E007F7BEEDA4
:10072000EFBBDEF7FFFFFFE1776FBFFEFFF77EEC69
:100730000F1BDEC07FFC01FD776FBFFEFFFB7E0D50
:10074000EEABDEDF7FFDDDFD006FDFFEFFFCFEEDCB
:10075000EEABDEDF7FFC01FDF7EDEEFEFFFB3FFBC6
:10076000EDBBDE807FFDDDEDF6EBF6FEFFF7DFFB98
:10077000EFB81E5F7FFC01F50067F88001CFE3F75B
:10078000AFBBDEDF7FFDFDFBFF6FFEFFFF3FF7EF3F
:10079000DFBFFFC07FFFBFFFBFFFFFEFBFFF7FFFD8
:1007A000FFFEFFFBFFFFBFFFBFE001EFBFF73F0012
:1007B0000EFEFDFBFFFF7FFFBFFF7FC103F77FFB47
:1007C000FF7EFE77FFFC00F000F777B6EFF77FFBC8
:1007D000FFB01F777FFDFEF7BEFB77FEFFEFBFFB8D
:1007E000FDFEFBEFBFFDFEF7BEFB77E007EFBFFBB3
:1007F000FEFEFCC01FFC00F7BEFB6FFEFFDDDFBB93
:10080000FFDEFEFFDFFDFEF7BEFF7F8001BDE3B828
:100810001FA00FBFFFFDFEF000C000FFDF7BF7BB96
:10082000FFBDFF603FFC00F7BEFF7FC003FBFFBBC7
:10083000FF7DFEEFBFFDFEF7BEFF7FFBDFF7FFBBD7
:10084000FC7BB8EFBFFDFEF7BEFF7FFDDFEFBFBB58
:10085000FF7BDEEFBFFDFEF7BEFF7FFDDFDFDFBB0F
:10086000FF77DEEFBFFC00F000FF7FFF5F800FBB74
:10087000FF600EE03FFDE0F7FEF66FFDBFDFAE006C
:100880000767EE6DBFF81DF00076EFFDBF7FAFDEAE
:10089000FFEFFFBBFFFDBDF7FF402FFDBFBFB7C0A0
:1008A00004000C003FFEDBF7FF76E0DDBBB003BFCA
:1008B000FFEFFFEFFFF00034016FDDEDBBF7BFBFCF
:1008C000FFEFFE007FF7BF77DF603DEDB737BF304A
:1008D0000FC03FEFFFFFBFF7DF6F5DF5B7B0B73F6A
:1008E000FFDFBC003FF800F603415DF5AFB6B6B0E0
:1008F0000FAF7F6DFFFF7FF7DF6D5BF5AFB6AFBF6B
:10090000FFB77FABFFFF03F7D76D6BF59FB6AFBFA8
:10091000FF7AF8001FFE7BF7DB6D77FDBFA6DFB027
:100920000EFDFFFFFFFDB7F401616BFDBF92DBB76A
:10093000EDFAFE00FFF3CFF7FF6F6BFDBFB5ABB76E
:10094000EFE77EFEFFFF3070007D5C8001EF73B04B
:100950000F9F8E00FFF8FEF7FF7EBDFFFFDEFBB7A7
:10096000EC7FDEFEFFFFFFFFFFFFFFFFFFFFFFFF4C
:10097000FFFFFFFFFFFFFFFFFFFFFFFFFFFFFFFF87
:10098000FFFFFFFFFFFFFFFFFFFFFFFFFFFFFFFF77
:10099000FFFFFFFFFFFFFFFFFFFFFFFFFFFFFFFF67
:1009A000FFFFFFFFFF1800000000000000006606C8
:1009B000333C128BE08944420949241288808944DF
:1009C0009902493C1E888C8F449904492412A88CB2
:1009D0008954420849241250808928660F33BC127A
:1009E0005080E92818000000000000000000900C72
:1009F00011241FBECFEFD8E0DEBFCDBF11E0A0E0D5
:100A0000B1E0EEE5F3E202C005900D92AC32B10721
:100A1000D9F727E0ACE2B1E001C01D92A531B207E1
:100A2000E1F714E0C8EFD4E004C02197FE010E9472
:100A3000A211C73FD107C9F70E94D90C0C94AD1180
:100A40000C94000080E0E1E6F2E081118FEF0024D9
:100A500081938193819381930394D1F7EEEFF6E034
:100A6000128A118A108A178608950F931F93CF93C5
:100A7000DF938C01C0E0D0E0F801EC0FFD1F649122
:100A8000662371F0E091FE06F091FF060190F0817F
:100A9000E02D8EEF96E00995892B11F02196ECCF91
:100AA000CE01DF91CF911F910F910895CF92DF92E8
:100AB000EF92FF920F931F93CF93DF936C017A0114
:100AC0008B01C0E0D0E0CE15DF0589F0D8016D9133
:100AD0008D01D601ED91FC910190F081E02DC601D0
:100AE0000995892B11F47E0102C02196ECCFC70134
:100AF000DF91CF911F910F91FF90EF90DF90CF90FA
:100B00000895FC01538D448D252F30E0842F90E013
:100B1000821B930B541710F0CF96089501970895F8
:100B2000FC01918D828D981761F0828DDF01A80FF5
:100B3000B11D5D968C91928D9F5F9F73928F90E017
:100B400008958FEF9FEF0895FC01918D828D981786
:100B500031F0828DE80FF11D858D90E008958FEFC3
:100B60009FEF0895FC01918D228D892F90E0805C8C
:100B70009F4F821B91098F739927089581E696E014
:100B80000E94B20521E0892B09F420E0822F08950C
:100B9000FC01848DDF01A80FB11DA35ABF4F2C911A
:100BA000848D90E001968F739927848FA689B789E9
:100BB0002C93A089B1898C9180648C93938D848DC2
:100BC000981306C00288F389E02D80818F7D808391
:100BD0000895EF92FF920F931F93CF93DF93EC0151
:100BE00081E0888F9B8D8C8D981305C0E889F989E9
:100BF000808185FD24C0F62E0B8D10E00F5F1F4F06
:100C00000F731127E02E8C8DE8120CC00FB607FC75
:100C1000FACFE889F989808185FFF5CFCE010E945E
:100C2000C805F1CF8B8DFE01E80FF11DE35AFF4F90
:100C3000F0820B8FEA89FB898081806207C0EE8990
:100C4000FF896083E889F98980818064808381E0FD
:100C500090E0DF91CF911F910F91FF90EF90089559
:100C6000CF93DF93EC01888D8823C9F0EA89FB8953
:100C7000808185FD05C0A889B9898C9186FD0FC04A
:100C80000FB607FCF5CF808185FFF2CFA889B9891F
:100C90008C9185FFEDCFCE010E94C805E7CFDF9193
:100CA000CF91089580E090E0892B29F00E94BE0545
:100CB00081110C94000008953FB7F89480912F01A2
:100CC00090913001A0913101B091320126B5A89BDD
:100CD00005C02F3F19F00196A11DB11D3FBFBA2FCE
:100CE000A92F982F8827820F911DA11DB11DBC012E
:100CF000CD0142E0660F771F881F991F4A95D1F7F3
:100D000008958F929F92AF92BF92CF92DF92EF920F
:100D1000FF926B017C010E945C064B015C01C114D7
:100D2000D104E104F104F1F00E945C06DC01CB0186
:100D300088199909AA09BB09883E9340A105B10504
:100D400070F321E0C21AD108E108F10888EE880E9C
:100D500083E0981EA11CB11CC114D104E104F1046C
:100D600019F7DDCFFF90EF90DF90CF90BF90AF905D
:100D70009F908F90089568EE73E080E090E00C946F
:100D80008106339902C080E801C080E04A9B8061FF
:100D9000319B80624B9B80644C9B8860329B84605B
:100DA00008958093BB0084E88093BC008091BC00D0
:100DB00087FFFCCF089584EA8093BC008091BC003B
:100DC00087FFFCCF88E70C94D1060E94DB0680E405
:100DD0008093BB0084E88093BC00E1E6F2E0909150
:100DE000BC0097FFFCCF91919093BB008093BC0017
:100DF00096E0E136F90799F78091BC0087FFFCCFB8
:100E000084E98093BC008091BC0084FDFCCF0895F0
:100E100060387105D0F440345105B8F4EEE7F0E0E5
:100E200080E1849FD001A0781124A60F4770E40FC1
:100E3000F11D8491AF59BD4F222319F06C91862B7F
:100E400003C080956C9186238C9308952F923F92D6
:100E50004F925F926F927F928F929F92AF92BF92CA
:100E6000CF92DF92EF92FF920F931F93CF93DF9376
:100E700000D000D0CDB7DEB7E22EF12C9C012E0DB4
:100E80003F1D37FD61C0803891050CF05DC010E05A
:100E90009B01200F311F37FD57C0603471050CF0E6
:100EA00053C03A012B011C01C70107969C0193E036
:100EB000359527959A95E1F73A832983A12CB12C92
:100EC000C12CD12CC016D1060CF03EC01C821B8256
:100ED0004601840C951CEB81FC81EE15FF0564F541
:100EE000EB81FC8183E0F595E7958A95E1F7EA0DC2
:100EF000FB1DE60DF71DE491F0E08B819C8187706E
:100F0000992720E830E002C0359527958A95E2F7C9
:100F1000E223F323EF2B51F021E0A4016B817C81CC
:100F2000620D731D82E097E00E9408078B819C810F
:100F300001969C838B83CFCFFFEFCF1ADF0A2981E5
:100F40003A81A20EB31EBECF0F900F900F900F905C
:100F5000DF91CF911F910F91FF90EF90DF90CF9095
:100F6000BF90AF909F908F907F906F905F904F90C9
:100F70003F902F9008952F923F924F925F926F92E1
:100F80007F928F929F92AF92BF92CF92DF92EF9219
:100F9000FF920F931F93CF93DF93CDB7DEB72997BF
:100FA0000FB6F894DEBF0FBECDBFFC016A3069F406
:100FB00025898189928938E0239F800D911D112414
:100FC000928B818B108A1786AAC06D3009F4A7C056
:100FD00099878887F588348823886188728807858F
:100FE000108900381105C4F0A885B98555962C9153
:100FF0005597422F50E01F968D919C915097B6E0E7
:101000002B9F800D911D1124E885F985908B878792
:10101000268921116EC083C0F0E46F16710424F795
:10102000C80125E0F29E800D911D112418161906A5
:10103000DCF68F2D90E09C838B83C301A8E0FA9EA1
:10104000800D911D11241816190674F6B5E06B9FDA
:10105000B0011124FB01EA57FF4FFA83E98330E026
:101060008885998504969E838D83E981FA81E49031
:10107000353009F4E12C430188E0482EE0FC02C041
:10108000532C01C0522C51100BC0321009C0E694F1
:101090004A948B819C81880E991E4110EFCF1BC012
:1010A00068018C2D801B8F1590F754018A2D8819AB
:1010B0008F1568F4252DA501B6018D819E813F8392
:1010C0000E9408079FEFA91AB90A3F81EFCFAFEF3F
:1010D000CA1ADA0AE6CF3F5FEB81FC810E0F1F1FB1
:1010E00089819A8101969A838983363009F0BDCF30
:1010F0007BCF6AEF64039001659F300D1124205867
:101100003F4F281739075CF4A885B985ED91FC910C
:1011100011970190F081E02D6AE0CD01099581E001
:1011200090E029960FB6F894DEBF0FBECDBFDF91D9
:10113000CF911F910F91FF90EF90DF90CF90BF90D4
:10114000AF909F908F907F906F905F904F903F9067
:101150002F9008950895089580E090E008958F926B
:101160009F92AF92BF920F931F93CF93DF93CDB710
:10117000DEB7A1970FB6F894DEBF0FBECDBF19A2A0
:10118000423008F44AE08E010F5D1F4F842E912CEF
:10119000A12CB12CA50194010E94AC0FE62FB9013E
:1011A000CA0101501109EA3014F4E05D01C0E95CA4
:1011B000D801EC93232B242B252B61F70115110566
:1011C00071F0F80101900020E9F73197AF01401B61
:1011D000510BB8018EEF96E00E94560502C080E0E8
:1011E00090E0A1960FB6F894DEBF0FBECDBFDF91A1
:1011F000CF911F910F91BF90AF909F908F900895C6
:101200000E94A8114F925F926F927F928F929F924D
:10121000AF92BF92CF92DF92EF92FF920F931F9304
:10122000CF93DF9300D000D0CDB7DEB7E0900001C0
:10123000F12CC7010396182F110F10935D02612F37
:1012400070E080E090E00E94801020E030E040E01C
:101250005FE30E9411110E944F1060935E0284E0D0
:1012600080935F029091330180E061E08830C9F0A3
:1012700040E050E090E0E82FF0E0911779F09A011B
:101280002E0F3F1FD901A35CBE4F1C92D901A3535F
:10129000BE4F6C939F5F485F5F4FEFCF8F5F912F83
:1012A000E5CF90933301809334018E2D880F880F02
:1012B0008A5F80932D0110922C01B8E0CB2ED12CA7
:1012C000E12CF12C1FEF90912C0180912D01909039
:1012D0005D029817A8F5292D30E040E050E0211577
:1012E00031054105510571F099823A834B835C8346
:1012F0000E94640F29813A814B815C810E947A0FA0
:101300009B01AC01209333010E94640FA701960159
:101310000E947A0F60933401E091330128E0E29F4C
:10132000F0011124E60FF11DE35CFE4F8081811175
:10133000CACF108380912C018F5F80932C01C3CF83
:1013400010922C0180913301812CC92CD12C98E072
:10135000891609F44DC0482C512CF201E35CFE4F74
:10136000612C712C691408F040C080818F3FC1F15D
:101370008FEF9FEFBF016D5371404FEF5FEF5C0147
:10138000A60EB71E8C01040D151D9A01A3E0220FB5
:10139000331FAA95E1F72A0D3B1D235C3E4FD9016F
:1013A0002C912F3FA1F47A01E60CF71CBFEFEB164E
:1013B000FB0669F00F3F2FEF120749F0EC14FD0414
:1013C00034F40830110519F020812F5F20834F5F1E
:1013D0005F4F42305105C9F601968230910569F69A
:1013E0008FEF681A780A3896BDCF8394892DAFCFD6
:1013F00080933301809234012FB7F89460913501C6
:101400007091360180913701909138012FBF28EEFD
:1014100033E040E050E00E94AC0F2093390130935C
:101420003A0140933B0150933C010F900F900F9075
:101430000F90DF91CF911F910F91FF90EF90DF9070
:10144000CF90BF90AF909F908F907F906F905F9064
:101450004F900895CF92DF92EF92FF920F931F93D8
:10146000CF93DF930E94220510920E0710920D0772
:101470001092100710920F0710922C0100E010E05C
:10148000C0E0D0E0F12C80915D02F81608F04DC06C
:1014900026E0F29EC001112490930E0780930D0761
:1014A0001093100700930F0738E0F39EC00111243A
:1014B000FC01EC0FFD1FE353FE4F2081222379F046
:1014C00020915F02E0915E0238E0E39FF001112479
:1014D000E20FF11DE35CFE4F20812E3FD9F48C0F0B
:1014E0009D1FFC01E35CFE4F60816F3F19F48CE7A8
:1014F00090E004C0611105C08AE790E00E943505C4
:1015000012C06E3F81F070E080E090E04AE00E94FF
:10151000AF0809C088E790E00E94350580912C0152
:101520008F5F80932C01F394AECF2196085F1F4FFD
:10153000C830D10509F0A6CF90912C0180912D01E2
:10154000981347C00E942205109234018091340103
:10155000883080F5109233012091330190915D0223
:1015600080913401291710F596E0299F90011124EC
:1015700030930E0720930D0728E0829FC0011124AD
:101580009093100780930F0788E690E00E9435053E
:101590000E94E5066AE070E080E090E00E9481062B
:1015A000809133018D5F80933301D6CF8F5F80931D
:1015B0003401CCCF68E873E180E090E00E948106BE
:1015C00080910001863019F08F5F809300010E94A6
:1015D0000209C0E0D0E021E0AE016CE670E082E0FC
:1015E00097E00E9408072196C134D105A1F7CEE605
:1015F000D0E0D0930E07C0930D0788E190E0909360
:10160000100780930F0760912C0170E080E090E05C
:101610004AE00E94AF0884E790E090930E07809321
:101620000D0780E290E09093100780930F0786E704
:1016300090E00E943505D0930E07C0930D0788E215
:1016400090E09093100780930F0760912D0170E058
:1016500080E090E04AE00E94AF0880915F02209114
:101660005E0236E0239FA001112450930E074093A1
:101670000D0790E0AC0133E0440F551F3A95E1F7B8
:101680005093100740930F0738E0239F800D911D62
:101690001124FC01E35CFE4F80818E3F79F484E7E6
:1016A00090E00E943505D0930E07C0930D0710926D
:1016B000100710920F0781E790E00EC08FE690E0D0
:1016C0000E943505D0930E07C0930D0710921007A6
:1016D00010920F078CE690E00E9435058EE690E0B0
:1016E00090930E0780930D0788E090E09093100789
:1016F00080930F07C0903901D0903A01E0903B01F0
:10170000F0903C012FB7F89460913501709136014B
:1017100080913701909138012FBF2CE2C20E21E059
:10172000D21EE11CF11C28EE33E040E050E00E94A4
:10173000AC0FC701B601621B730B840B950B4AE01B
:101740000E94AF08DF91CF911F910F91FF90EF9012
:10175000DF90CF900C94E5061F920F920FB60F9278
:1017600011242F933F934F935F936F937F938F93A6
:101770009F93AF93BF93EF93FF9381E696E00E9410
:10178000C805FF91EF91BF91AF919F918F917F918C
:101790006F915F914F913F912F910F900FBE0F90DE
:1017A0001F9018951F920F920FB60F9211242F932E
:1017B0008F939F93EF93FF93E0917106F0917206E0
:1017C0008081E0917706F091780682FD12C09081C9
:1017D00080917A068F5F8F7320917B06821751F07C
:1017E000E0917A06F0E0EF59F94F958F80937A06F1
:1017F00001C08081FF91EF919F918F912F910F9068
:101800000FBE0F901F9018951F920F920FB60F9258
:1018100011242F933F938F939F93AF93BF93809106
:10182000350190913601A0913701B0913801309186
:101830002E0123E0230F2D3720F40196A11DB11DA9
:1018400005C026E8230F0296A11DB11D20932E018D
:101850008093350190933601A0933701B0933801FE
:1018600080912F0190913001A0913101B09132010E
:101870000196A11DB11D80932F0190933001A0937B
:101880003101B0933201BF91AF919F918F913F9100
:101890002F910F900FBE0F901F9018950F931F93CD
:1018A000CF93DF938C0181E090E00E94720F80FF64
:1018B0002FC08AE090E00E94720F9FEF980F9E3F2A
:1018C00038F522E330E0D80150963C932E931F97D1
:1018D00028E330E052963C932E935197CBE0D0E032
:1018E000D801ED91FC910190F081E02D682FC801A5
:1018F0000995CE010E94720F2196C131D10581F761
:101900000E94E506DF91CF911F910F910C94BB06C9
:10191000DF91CF911F910F91089504970C944E0C75
:10192000E1E6F6E01382128288EE93E0A0E0B0E0F8
:1019300084839583A683B78389E091E09183808334
:1019400085EC90E09587848784EC90E09787868784
:1019500080EC90E0918B808B81EC90E0938B828B7C
:1019600082EC90E0958B848B86EC90E0978B868B55
:10197000118E128E138E148EEEEFF6E01382128209
:101980001186128680E183871086178215868BE187
:1019900091E09183808389E291E095838483108A2A
:1019A0001786128A118A81E0838B148A858B168AA6
:1019B0000895789484B5826084BD84B5816084BDC7
:1019C00085B5826085BD85B5816085BD80916E00DD
:1019D000816080936E00109281008091810082600E
:1019E000809381008091810081608093810080914B
:1019F00080008160809380008091B100846080933A
:101A0000B1008091B00081608093B00080917A0035
:101A1000846080937A0080917A00826080937A005B
:101A200080917A00816080937A0080917A0080684A
:101A300080937A001092C10081EC80937C0088B181
:101A40008E6088B987B18E6087B98BB18C618BB994
:101A50008AB18C6F8AB98BB1806E8BB91092B90044
:101A600088E48093B8000E94DB0680E00E94D106E3
:101A7000C6E8D5E01C2F115EFE0184910E94D106BC
:101A800021961C13F9CF84E98093BC008091BC009F
:101A900084FDFCCF81E08093B800E0917106F09165
:101AA000720682E08083E0916D06F0916E061082EE
:101AB000E0916F06F09170068FEC808310927906AA
:101AC000E0917506F091760686E08083E0917306DA
:101AD000F0917406808180618083E0917306F091BB
:101AE0007406808188608083E0917306F0917406AB
:101AF000808180688083E0917306F0917406808114
:101B00008F7D8083CFE3D0E00E94220508E028E4A7
:101B100045EA59E0BE018AE190E00E942607BE0135
:101B2000685F7F4F00E420E845EA55E080E090E000
:101B30000E9426070E94E5062197C73F1FEFD107A5
:101B400019F768EE73E080E090E00E9481060E9441
:101B50000209442443948FEF809360020E94C106DF
:101B600087FD109260020E94C10684FD40926002CF
:101B70000E94C10685FF03C082E0809360020E943C
:101B8000C10686FF03C083E0809360020E94C10605
:101B900083FF03C084E0809360020E94C10682FF3D
:101BA00003C085E080936002809160028230D9F0AA
:101BB00028F4882341F0813069F0FCC08330E1F0E3
:101BC000843051F1F7C080915F02882309F4F2C09C
:101BD000815006C080915F02873009F4EBC08F5FAF
:101BE00080935F02E7C080915E02882309F4E2C01F
:101BF000815080935E02DEC020915E02422F50E051
:101C000080915D0290E00197481759070CF0D2C00F
:101C10002F5F20935E02CEC0E0915E0280915F0252
:101C200048E0E49FF0011124E80FF11DDF01A35308
:101C3000BE4F1C92E35CFE4F90805FEF95120DC08B
:101C40008EEF80830E942A0A68E873E180E090E0CA
:101C50000E9481060E940209ADC09110ABC0809025
:101C60005D025F010DEF502E082D10E0F50150824E
:101C7000612C80E090E0712C781409F444C0C72CEA
:101C8000D12C2FEF3FEFFC0148E0749EE00DF11DD9
:101C900011247F0158E0E51AF108AF01435C5E4F63
:101CA0001A01D701A20FB31FA35CBE4F4FEF5FEF26
:101CB000B901680F791FEA01CC0DDD1DCF3FFFEFA1
:101CC000DF07A1F06F3FEFEF7E0781F0C017D1076C
:101CD0006CF46830710551F0CC91C11107C0F1016D
:101CE000C081CD3F19F4CC93662463944F5F5F4F5E
:101CF000189642305105F9F62F5F3F4F22303105DB
:101D000081F67394B9CF01968830910509F0B3CF6D
:101D10006110ACCF882DC82CD12C48E0941609F462
:101D200045C0A92DB0E0BD0140E050E04815D8F510
:101D3000FB01E35CFE4F80818D3F81F510828FEFC8
:101D40009FEF2FEF3FEFEC01CA0FDB1F7C01E60E88
:101D5000F71EF901E40FF51FEF3F1FEFF107A9F0A0
:101D6000CF3F1FEFD10789F0EC15FD0574F4C830A3
:101D7000D10559F0F90113E0EE0FFF1F1A95E1F7B5
:101D8000EE0DFF1DE353FE4F10822F5F3F4F2230B9
:101D90003105F9F601968230910599F64F5F5F4F54
:101DA000685F7F4FC3CF9394882DB7CF8093330163
:101DB000909234012FB7F8946091350170913601FB
:101DC00080913701909138012FBF0E947E1020E052
:101DD00030E04AE754E40E94DD0F6B017C01809102
:101DE000390190913A01A0913B01B0913C01BC01B5
:101DF000CD01645D7E4F8F4F9F4F0E947E109B01EF
:101E0000AC01C701B6010E940C1187FD0AC00E94F7
:101E10002A0A68E873E180E090E00E9481060E944F
:101E200002090E942A0A0E94520695CE8F929F9222
:101E3000AF92BF92CF92DF92EF92FF92CF93DF9358
:101E4000EC01688179818A819B8161157105810529
:101E5000910521F464E279ED8BE597E02DE133EF14
:101E600041E050E00E947A0F49015A019B01AC0108
:101E7000A7EAB1E40E94990F6B017C01ACEEB4EFCC
:101E8000A50194010E94A70FDC01CB018C0D9D1DC3
:101E9000AE1DBF1DB7FF03C00197A109B0488883DD
:101EA0009983AA83BB83BC01CD019F77DF91CF913A
:101EB000FF90EF90DF90CF90BF90AF909F908F906A
:101EC00008950E94160F089581E091E00E94160F78
:101ED0000895609301017093020180930301909330
:101EE00004010895F999FECF92BD81BDF89A992712
:101EF00080B50895052E97FB1EF400940E94910F63
:101F000057FD07D00E94AC0F07FC03D04EF40C9491
:101F1000910F50954095309521953F4F4F4F5F4F12
:101F2000089590958095709561957F4F8F4F9F4F45
:101F300008950E94CE0FA59F900DB49F900DA49F71
:101F4000800D911D11240895B7FF0C94990F0E94E4
:101F5000990F821B930B0895A1E21A2EAA1BBB1B9B
:101F6000FD010DC0AA1FBB1FEE1FFF1FA217B30765
:101F7000E407F50720F0A21BB30BE40BF50B661F7B
:101F8000771F881F991F1A9469F76095709580953F
:101F900090959B01AC01BD01CF010895A29FB001B6
:101FA000B39FC001A39F700D811D1124911DB29F8D
:101FB000700D811D1124911D08950E94F10F0C9444
:101FC000D2100E94CB1058F00E94C41040F029F4A7
:101FD0005F3F29F00C94BB1051110C9406110C9426
:101FE000C1100E94E31068F39923B1F3552391F3D4
:101FF000951B550BBB27AA2762177307840738F078
:102000009F5F5F4F220F331F441FAA1FA9F335D0D4
:102010000E2E3AF0E0E832D091505040E695001C88
:10202000CAF72BD0FE2F29D0660F771F881FBB1F42
:10203000261737074807AB07B0E809F0BB0B802D20
:10204000BF01FF2793585F4F3AF09E3F510578F04C
:102050000C94BB100C9406115F3FE4F3983ED4F34C
:10206000869577956795B795F7959F5FC9F7880F20
:10207000911D9695879597F90895E1E0660F771F72
:10208000881FBB1F621773078407BA0720F0621B03
:10209000730B840BBA0BEE1F88F7E09508950E942E
:1020A000EB1088F09F5798F0B92F9927B751B0F0EF
:1020B000E1F0660F771F881F991F1AF0BA95C9F7CC
:1020C00014C0B13091F00E940511B1E008950C9454
:1020D0000511672F782F8827B85F39F0B93FCCF307
:1020E000869577956795B395D9F73EF49095809549
:1020F000709561957F4F8F4F9F4F0895E89409C069
:1021000097FB3EF490958095709561957F4F8F4F2A
:102110009F4F9923A9F0F92F96E9BB279395F69540
:10212000879577956795B795F111F8CFFAF4BB0FBE
:1021300011F460FF1BC06F5F7F4F8F4F9F4F16C022
:10214000882311F096E911C0772321F09EE8872FAC
:10215000762F05C0662371F096E8862F70E060E068
:102160002AF09A95660F771F881FDAF7880F9695E1
:10217000879597F9089597F99F6780E870E060E088
:1021800008959FEF80EC089500240A941616170610
:1021900018060906089500240A9412161306140658
:1021A00005060895092E0394000C11F4882352F0BB
:1021B000BB0F40F4BF2B11F460FF04C06F5F7F4F73
:1021C0008F4F9F4F089557FD9058440F551F59F05A
:1021D0005F3F71F04795880F97FB991F61F09F3F14
:1021E00079F087950895121613061406551FF2CF3D
:1021F0004695F1DF08C0161617061806991FF1CF8D
:1022000086957105610508940895E894BB276627B3
:102210007727CB0197F908950E947E1108F48FEF7C
:1022200008950E9424110C94D2100E94C41038F01A
:102230000E94CB1020F0952311F00C94BB100C944D
:10224000C11011240C9406110E94E31070F3959FA5
:10225000C1F3950F50E0551F629FF001729FBB279D
:10226000F00DB11D639FAA27F00DB11DAA1F649F39
:102270006627B00DA11D661F829F2227B00DA11DEC
:10228000621F739FB00DA11D621F839FA00D611D72
:10229000221F749F3327A00D611D231F849F600D93
:1022A000211D822F762F6A2F11249F5750409AF0BC
:1022B000F1F088234AF0EE0FFF1FBB1F661F771F48
:1022C000881F91505040A9F79E3F510580F00C9413
:1022D000BB100C9406115F3FE4F3983ED4F386954F
:1022E00077956795B795F795E7959F5FC1F7FE2BB3
:1022F000880F911D9695879597F90895990F000875
:10230000550FAA0BE0E8FEEF16161706E807F907C7
:10231000C0F012161306E407F50798F0621B730B62
:10232000840B950B39F40A2661F0232B242B252BE3
:1023300021F408950A2609F4A140A6958FEF811D86
:10234000811D0895EE0FFF1F0590F491E02D099473
:0E23500081E090E0F8940C94AD11F894FFCF6A
:10235E00010100000000000000E90556058105306E
:10236E0006B2059005A40500000000BB075605AC9B
:0C237E0008AB084E0CFCFF00008D0C00AA
:107E0000112484B714BE81FFF0D085E080938100F7
:107E100082E08093C00088E18093C10086E0809377
:107E2000C20080E18093C4008EE0C9D0259A86E02C
:107E300020E33CEF91E0309385002093840096BBD3
:107E4000B09BFECF1D9AA8958150A9F7CC24DD24C4
:107E500088248394B5E0AB2EA1E19A2EF3E0BF2EE7
:107E6000A2D0813461F49FD0082FAFD0023811F036
:107E7000013811F484E001C083E08DD089C08234E0
:107E800011F484E103C0853419F485E0A6D080C0E4
:107E9000853579F488D0E82EFF2485D0082F10E0AE
:107EA000102F00270E291F29000F111F8ED06801E7
:107EB0006FC0863521F484E090D080E0DECF843638
:107EC00009F040C070D06FD0082F6DD080E0C81688
:107ED00080E7D80618F4F601B7BEE895C0E0D1E017
:107EE00062D089930C17E1F7F0E0CF16F0E7DF06D8
:107EF00018F0F601B7BEE89568D007B600FCFDCFD4
:107F0000A601A0E0B1E02C9130E011968C91119780
:107F100090E0982F8827822B932B1296FA010C0160
:107F200087BEE89511244E5F5F4FF1E0A038BF0790
:107F300051F7F601A7BEE89507B600FCFDCF97BE46
:107F4000E89526C08437B1F42ED02DD0F82E2BD052
:107F50003CD0F601EF2C8F010F5F1F4F84911BD097
:107F6000EA94F801C1F70894C11CD11CFA94CF0C13
:107F7000D11C0EC0853739F428D08EE10CD085E9AC
:107F80000AD08FE07ACF813511F488E018D01DD067
:107F900080E101D065CF982F8091C00085FFFCCF94
:107FA0009093C60008958091C00087FFFCCF809118
:107FB000C00084FD01C0A8958091C6000895E0E648
:107FC000F0E098E1908380830895EDDF803219F02E
:107FD00088E0F5DFFFCF84E1DECF1F93182FE3DFCA
:107FE0001150E9F7F2DF1F91089580E0E8DFEE27F6
:047FF000FF270994CA
:027FFE00040479
:0400000300007E007B
:00000001FF
