:100000000C944B050C9473050C9473050C947305B8
:100010000C9473050C9473050C9473050C94730580
:100020000C9473050C9473050C94000C0C94720CD6
:100030000C9473050C9473050C9473050C94730560
:100040000C9473050C9473050C9473050C94730550
:100050000C9473050C9473050C9473050C9445076C
:100060000C9473050C9473050C9473050C94730530
:100070000C9473050C9473050C9473050C94730520
:100080000C9473050C9473050C9473050C94730510
:100090000C9473050C9473050C9473050C94730500
:1000A0000C9473050C9473050C94730557494E001A
:1000B0003A290040003A28002A002F002B002E0089
:1000C0005E00010204081020408000000000003E95
:1000D0005B4F5B3E3E6B4F6B3E1C3E7C3E1C183CB8
:1000E0007E3C181C577D571C1C5E7F5E1C00183C14
:1000F0001800FFE7C3E7FF0018241800FFE7DBE75D
:10010000FF30483A060E2629792926407F05050743
:10011000407F05253F5A3CE73C5A7F3E1C1C08089F
:100120001C1C3E7F14227F22145F5F005F5F060964
:100130007F017F006689956A606060606094A2FFBD
:10014000A29408047E040810207E201008082A1CAF
:1001500008081C2A08081E101010100C1E0C1E0C7B
:1001600030383E3830060E3E0E060000000000001B
:10017000005F00000007000700147F147F14242A8A
:100180007F2A12231308646236495620500008075C
:100190000300001C2241000041221C002A1C7F1C7D
:1001A0002A08083E0808008070300008080808087F
:1001B000000060600020100804023E5149453E00E6
:1001C000427F400072494949462141494D33181444
:1001D000127F1027454545393C4A49493141211193
:1001E00009073649494936464949291E0000140085
:1001F00000004034000000081422411414141414A8
:10020000004122140802015909063E415D594E7C05
:100210001211127C7F494949363E414141227F41BA
:1002200041413E7F494949417F090909013E414118
:1002300051737F0808087F00417F41002040413F03
:10024000017F081422417F404040407F021C027F12
:100250007F0408107F3E4141413E7F090909063E67
:100260004151215E7F091929462649494932030136
:100270007F01033F4040403F1F2040201F3F403848
:10028000403F631408146303047804036159494D23
:1002900043007F4141410204081020004141417F59
:1002A00004020102044040404040000307080020CF
:1002B000545478407F2844443838444444283844CF
:1002C00044287F385454541800087E090218A4A406
:1002D0009C787F0804047800447D40002040403D25
:1002E000007F1028440000417F40007C047804789F
:1002F0007C080404783844444438FC182424181832
:10030000242418FC7C08040408485454542404048D
:100310003F44243C4040207C1C2040201C3C40307A
:10032000403C44281028444C9090907C4464544CA9
:100330004400083641000000770000004136080004
:1003400002010204023C2623263C1EA1A161123AAE
:100350004040207A385454555921555579412154FB
:10036000547841215554784020545579400C1E5200
:1003700072123955555559395454545939555454A4
:10038000580000457C410002457D420001457C400B
:10039000F0292429F0F0282528F07C545545002028
:1003A00054547C547C0A097F4932494949323248C5
:1003B000484832324A4848303A4141217A3A42402C
:1003C0002078009DA0A07D39444444393D40404000
:1003D0003D3C24FF2424487E4943662B2FFC2F2BD1
:1003E000FF0929F620C0887E090320545479410072
:1003F00000447D413048484A32384040227A007AF1
:100400000A0A727D0D19317D2629292F28262929CE
:10041000292630484D4020380808080808080808F0
:10042000382F10C8ACBA2F102834FA00007B000017
:1004300008142A142222142A14089500220095AACE
:10044000005500AAAA55AA55AA000000FF001010E6
:1004500010FF00141414FF001010FF00FF1010F024
:1004600010F0141414FC001414F700FF0000FF0037
:10047000FF1414F404FC141417101F10101F101F85
:100480001414141F00101010F0000000001F1010B2
:1004900010101F10101010F010000000FF101010AE
:1004A000101010101010FF10000000FF140000FFCB
:1004B00000FF00001F10170000FC04F414141710B4
:1004C000171414F404F40000FF00F71414141414A7
:1004D0001414F700F7141414171410101F101F141D
:1004E0001414F4141010F010F000001F101F00007E
:1004F000001F14000000FC140000F010F01010FFAA
:1005000010FF141414FF141010101F00000000F04E
:1005100010FFFFFFFFFFF0F0F0F0F0FFFFFF000023
:10052000000000FFFF0F0F0F0F0F38444438447CCA
:100530002A2A3E147E02020606027E027E026355CD
:100540004941633844443C04407E201E2006027E1C
:10055000020299A5E7A5991C2A492A1C4C7201722E
:100560004C304A4D4D303048784830BC625A463D98
:100570003E494949007E0101017E2A2A2A2A2A444D
:10058000445F444440514A444040444A5140000082
:10059000FF0103E080FF000008086B6B083612368D
:1005A0002436060F090F060000181800000010106E
:1005B000003040FF0101001F01011E00191D17122C
:1005C000003C3C3C3C0000000000080B0002020222
:1005D00001000904000001020200000524001001CE
:1005E0000524010101042402060524060001070573
:1005F000810310004009040100020A000000070501
:1006000002024000000705830240000004030904C1
:1006100012010002EF020140412336800001010275
:10062000030141726475696E6F204C4C4300417246
:100630006475696E6F204C656F6E6172646F00D572
:10064000F08D14A1C881CFD9F1AF2000FFFFFFFFCB
:10065000FFFFFFFFFFFFFFFFFFFFFFFFFFFFFFFFAA
:10066000FFFFFFFFFFFFFFFFFFFFFFFFFFFBEFFFAE
:100670007FEF9FFDFFDEFFBDFFE07FFFFFFFEFFE8F
:10068000BFEFDFFEFFDEFF80082F7FFFFFE1EFFD02
:10069000DFEC01FE7FBD7F7DFFAB7FFFFFFDEFFB4A
:1006A000EF83BFF6FFBBBF7DFBAB7FFFFFFB00F718
:1006B000F7EF7FF7FF37DE603D6B7FFFFFFBEFC893
:1006C00008CEF7B7EEAFE56FBD6B7FFFF831EFFFF8
:1006D000FDC607B7F79BAF603EEB783FFFEAEFFF41
:1006E000FFABEFB7FBBBBF6FBEEB7FFFFFFBEFE0E6
:1006F00003AFDBB7FBBBBF603D6B7FFFFFFBEFFED4
:10070000FFEF3377FBBBBF6FBDA97FFFFFFBEFFDA3
:10071000DFECEFF7EFBBBF603DB5FFFFFFFBEFFB8B
:10072000EFEFDFF7EFBBBF6FBBEDDFFFFFFA00704E
:1007300007EF27F7EFB7BF6FBFDDDFFFFFFBFFFB63
:10074000F7E8FBF81FAFBF000F3E3FFFFFDFFFFFE3
:10075000FFFFFDFFFBFFFFFFEFFFBDFFF00021806C
:10076000E003FEFFFDFFFC0FC7FDBDBFF7FFBDBEF1
:10077000EFFBFEFFFDFE0DEC3FFE857FF4017DBE2D
:10078000EFFBC0030002EDEFBFFEBCFFFFFFFD80EB
:10079000E003FEFFEFDEEC0FB81FBDDFFE03E1F765
:1007A000EF7FFEFFEFDE0DEC03DFA5DFFEFBEFF7D3
:1007B000EF7FFEFFEFBEEDEFBBD89A3FFE03EF00E9
:1007C0006001E007F7BEEDEFBBDEF7FFFFFFE1776B
:1007D0006FBFFEFFF77EEC0F1BDEC07FFC01FD77D5
:1007E0006FBFFEFFFB7E0DEEABDEDF7FFDDDFD00AC
:1007F0006FDFFEFFFCFEEDEEABDEDF7FFC01FDF701
:10080000EDEEFEFFFB3FFBEDBBDE807FFDDDEDF699
:10081000EBF6FEFFF7DFFBEFB81E5F7FFC01F50094
:1008200067F88001CFE3F7AFBBDEDF7FFDFDFBFFA5
:100830006FFEFFFF3FF7EFDFBFFFC07FFFBFFFBFD0
:10084000FFFFEFBFFF7FFFFFFEFFFBFFFFBFFFBF0D
:10085000E001EFBFF73F000EFEFDFBFFFF7FFFBF94
:10086000FF7FC103F77FFBFF7EFE77FFFC00F000F8
:10087000F777B6EFF77FFBFFB01F777FFDFEF7BE80
:10088000FB77FEFFEFBFFBFDFEFBEFBFFDFEF7BEFC
:10089000FB77E007EFBFFBFEFEFCC01FFC00F7BECE
:1008A000FB6FFEFFDDDFBBFFDEFEFFDFFDFEF7BE01
:1008B000FF7F8001BDE3B81FA00FBFFFFDFEF0006A
:1008C000C000FFDF7BF7BBFFBDFF603FFC00F7BE52
:1008D000FF7FC003FBFFBBFF7DFEEFBFFDFEF7BE4A
:1008E000FF7FFBDFF7FFBBFC7BB8EFBFFDFEF7BE72
:1008F000FF7FFDDFEFBFBBFF7BDEEFBFFDFEF7BE7F
:10090000FF7FFDDFDFDFBBFF77DEEFBFFC00F00026
:10091000FF7FFF5F800FBBFF600EE03FFDE0F7FE53
:10092000F66FFDBFDFAE000767EE6DBFF81DF0008C
:1009300076EFFDBF7FAFDEFFEFFFBBFFFDBDF7FF33
:10094000402FFDBFBFB7C004000C003FFEDBF7FF28
:1009500076E0DDBBB003BFFFEFFFEFFFF000340137
:100960006FDDEDBBF7BFBFFFEFFE007FF7BF77DFA7
:10097000603DEDB737BF300FC03FEFFFFFBFF7DF80
:100980006F5DF5B7B0B73FFFDFBC003FF800F6037F
:10099000415DF5AFB6B6B00FAF7F6DFFFF7FF7DFFC
:1009A0006D5BF5AFB6AFBFFFB77FABFFFF03F7D708
:1009B0006D6BF59FB6AFBFFF7AF8001FFE7BF7DBCC
:1009C0006D77FDBFA6DFB00EFDFFFFFFFDB7F401A1
:1009D000616BFDBF92DBB7EDFAFE00FFF3CFF7FFCF
:1009E0006F6BFDBFB5ABB7EFE77EFEFFFF3070006A
:1009F0007D5C8001EF73B00F9F8E00FFF8FEF7FF64
:100A00007EBDFFFFDEFBB7EC7FDEFEFFFFFFFFFFDB
:100A1000FFFFFFFFFFFFFFFFFFFFFFFFFFFFFFFFE6
:100A2000FFFFFFFFFFFFFFFFFFFFFFFFFFFFFFFFD6
:100A3000FFFFFFFFFFFFFFFFFFFFFFFFFFFFFFFFC6
:100A4000FFFFFFFFFFFFFFFFFFFFFFFF180000009A
:100A500000000000006606333C128BE08944420926
:100A6000492412888089449902493C1E888C8F440D
:100A70009904492412A88C895442084924125080B0
:100A80008928660F33BC125080E928180000000046
:100A900000000000DB1211241FBECFEFDAE0DEBF42
:100AA000CDBF11E0A0E0B1E0E2E5FBE202C00590BD
:100AB0000D92AE33B107D9F726E0AEE3B1E001C045
:100AC0001D92A73FB207E1F715E0CBE4D5E004C0E3
:100AD0002197FE010E949C15CA34D107C9F70E94D4
:100AE00061100C94A7150C940000CF92DF92EF9246
:100AF000FF920F931F93CF93DF936C017A018B01C9
:100B0000C0E0D0E0CE15DF0589F0D8016D918D01F0
:100B1000D601ED91FC910190F081E02DC60109957F
:100B2000892B11F47E0102C02196ECCFC701DF9121
:100B3000CF911F910F91FF90EF90DF90CF9008958C
:100B4000CF93DF931F92CDB7DEB76983DC01ED91C0
:100B5000FC910280F381E02D41E050E0BE016F5F27
:100B60007F4F09950F90DF91CF91089583E0809397
:100B7000E9008091F200882319F08AE38093E8006D
:100B80000895FC018485958597FD0BC09FB7F89467
:100B900082E08093E9008091F2009FBF90E001968F
:100BA00008959FB7F89482E08093E9008091F20065
:100BB0009FBF90E008953FB7F894809141019091D4
:100BC0004201A0914301B091440126B5A89B05C004
:100BD0002F3F19F00196A11DB11D3FBFBA2FA92FBC
:100BE000982F8827820F911DA11DB11DBC01CD0139
:100BF00042E0660F771F881F991F4A95D1F7089525
:100C00000895089580E090E008950E94F80F90E024
:100C100008950F931F93CF93DF931F92CDB7DEB745
:100C20008C01FC018485958597FF0EC0CE0101964D
:100C30000E94CE0F019719F4298130E002C02FEFF6
:100C40003FEFF80135872487F801848595850F905B
:100C5000DF91CF911F910F910895CF93DF931F9252
:100C6000CDB7DEB7FC018485958597FD05C02FEFD4
:100C70003FEF358724870BC0CE0101960E94CE0F2F
:100C8000019719F4898190E002C08FEF9FEF0F90D8
:100C9000DF91CF91089540914701509148012091F3
:100CA00045013091460142175307B4F49091E80092
:100CB0009570E1F39091E80092FD19C08093F100E6
:100CC000809147019091480101968F739927892B54
:100CD00019F48EEF8093E8008091470190914801CC
:100CE0000196909348018093470181E0089580E048
:100CF0000895615030F02091F100FC0120830196AD
:100D0000F8CF289884E680937B0208958F929F9273
:100D1000AF92BF92CF92DF92EF92FF926B017C0174
:100D20000E94DB054B015C01C114D104E104F10414
:100D3000F1F00E94DB05DC01CB0188199909AA09B1
:100D4000BB09883E9340A105B10570F321E0C21AAA
:100D5000D108E108F10888EE880E83E0981EA11CF6
:100D6000B11CC114D104E104F10419F7DDCFFF90E7
:100D7000EF90DF90CF90BF90AF909F908F900895AD
:100D80008F929F92AF92BF92CF92DF92EF92FF929B
:100D90000F931F93CF93DF935C016B017A018091D6
:100DA0000C01882309F45BC080917C02882309F43C
:100DB00056C080914A0180FF05C08091E0008260AA
:100DC0008093E000E70110E00AEF83E0882E9AE3C9
:100DD000992E2097D9F10E94F80F81110AC0015075
:100DE00009F43DC061E070E080E090E00E9486067A
:100DF000F0CF282F30E0C217D3070CF48C2F4FB759
:100E0000F8948092E9009091E80095FF1DC0282F8A
:100E100030E0C21BD30BF601982F915020F0819146
:100E20008093F100FACFC20ED31E112319F09092D5
:100E3000E80009C08091E80085FD06C09092E800B6
:100E400011E0209709F010E04FBFC3CF1111C3CFBD
:100E50005D9884E6809349011E141F0444F081E0EC
:100E600090E0F5019383828380E090E001C0C701A8
:100E7000DF91CF911F910F91FF90EF90DF90CF9076
:100E8000BF90AF909F908F9008951F920F920FB6D2
:100E90000F9211242F933F938F939F93AF93BF9300
:100EA00080914D0190914E01A0914F01B091500160
:100EB0003091400123E0230F2D3720F40196A11D2E
:100EC000B11D05C026E8230F0296A11DB11D209378
:100ED000400180934D0190934E01A0934F01B09338
:100EE00050018091410190914201A0914301B09144
:100EF00044010196A11DB11D8093410190934201CF
:100F0000A0934301B0934401BF91AF919F918F9102
:100F10003F912F910F900FBE0F901F901895BC011D
:100F200080E090E00C9486068FB12CB193B130E054
:100F30002095309520743327A90123E055954795D6
:100F40002A95E1F7292F30E020953095207133273D
:100F50003595279535952795242B8095807F822B75
:100F6000089560387105D0F440345105B8F4E2ECCE
:100F7000F0E080E1849FD001A0781124A60F477093
:100F8000E40FF11D8491A358BD4F222319F06C91F9
:100F9000862B03C080956C9186238C9308952F92A5
:100FA0003F924F925F926F927F928F929F92AF92F9
:100FB000BF92CF92DF92EF92FF920F931F93CF9346
:100FC000DF93CDB7DEB729970FB6F894DEBF0FBE1B
:100FD000CDBFFC016A3069F4248D808D918D38E09D
:100FE000239F800D911D1124918F808F178A168A5F
:100FF000AAC06D3009F4A7C099878887F48C338C18
:10100000228C608C718C0689178900381105C4F018
:10101000A885B9855C962C915C97422F50E0569636
:101020008D919C915797B6E02B9F800D911D1124B7
:10103000E885F985978B868B258D21116EC083C03D
:10104000F0E46F16710424F7C80125E0F29E800DCC
:10105000911D112418161906DCF68F2D90E09C8343
:101060008B83C301A8E0FA9E800D911D11241816F0
:10107000190674F6B5E06B9FB0011124FB01E6532D
:10108000FF4FFA83E98330E08885998504969E8333
:101090008D83E981FA81E490353009F4E12C430134
:1010A00088E0482EE0FC02C0532C01C0522C5110A5
:1010B0000BC0321009C0E6944A948B819C81880E43
:1010C000991E4110EFCF1BC068018C2D801B8F151E
:1010D00090F754018A2D88198F1568F4252DA501E4
:1010E000B6018D819E813F830E94B1079FEFA91AAF
:1010F000B90A3F81EFCFAFEFCA1ADA0AE6CF3F5FF6
:10110000EB81FC810E0F1F1F89819A8101969A83C2
:101110008983363009F0BDCF7BCF6AEF640390013D
:10112000659F300D112420583F4F281739075CF474
:10113000A885B985ED91FC9111970190F081E02D82
:101140006AE0CD01099581E090E029960FB6F89408
:10115000DEBF0FBECDBFDF91CF911F910F91FF90EA
:10116000EF90DF90CF90BF90AF909F908F907F9047
:101170006F905F904F903F902F9008954F925F92A5
:101180006F927F928F929F92AF92BF92CF92DF9297
:10119000EF92FF920F931F93CF93DF9300D000D075
:1011A000CDB7DEB7E0900001F12CC7010396182FF0
:1011B000110F10937502612F70E080E090E00E94A3
:1011C0007A1420E030E040E05FE30E940B150E94BB
:1011D00049146093760284E08093770290914B01EA
:1011E00080E061E08830C9F040E050E090E0E82F16
:1011F000F0E0911779F09A012E0F3F1FD901AB5AF9
:10120000BE4F1C92D901AB51BE4F6C939F5F485F9C
:101210005F4FEFCF8F5F912FE5CF90934B0180937E
:101220004C018E2D880F880F8A5F80933F011092AA
:101230003E01B8E0CB2ED12CE12CF12C1FEF909188
:101240003E0180913F01909075029817A8F5292DD5
:1012500030E040E050E0211531054105510571F0C5
:1012600099823A834B835C830E945E1329813A8181
:101270004B815C810E9474139B01AC0120934B0154
:101280000E945E13A70196010E94741360934C01A3
:10129000E0914B0128E0E29FF0011124E60FF11DDF
:1012A000EB5AFE4F80818111CACF108380913E019D
:1012B0008F5F80933E01C3CF10923E0180914B011E
:1012C000812CC92CD12C98E0891609F44DC0482CEA
:1012D000512CF201EB5AFE4F612C712C691408F06D
:1012E00040C080818F3FC1F18FEF9FEFBF016555F7
:1012F00071404FEF5FEF5C01A60EB71E8C01040D2D
:10130000151D9A01A3E0220F331FAA95E1F72A0DBC
:101310003B1D2B5A3E4FD9012C912F3FA1F47A014E
:10132000E60CF71CBFEFEB16FB0669F00F3F2FEF43
:10133000120749F0EC14FD0434F40830110519F0DB
:1013400020812F5F20834F5F5F4F42305105C9F6E8
:1013500001968230910569F68FEF681A780A3896FF
:10136000BDCF8394892DAFCF80934B0180924C01E8
:101370002FB7F89460914D0170914E0180914F010B
:10138000909150012FBF28EE33E040E050E00E94E2
:10139000A61320935101309352014093530150936F
:1013A00054010F900F900F900F90DF91CF911F91EC
:1013B0000F91FF90EF90DF90CF90BF90AF909F90F4
:1013C0008F907F906F905F904F900895CF92DF92B3
:1013D000EF92FF920F931F93CF93DF930E94490FD9
:1013E0001092E4061092E3061092E6061092E506CB
:1013F00010923E0100E010E0C0E0D0E0F12C8091BE
:101400007502F81608F04DC026E0F29EC0011124C6
:101410009093E4068093E3061093E6060093E506B6
:1014200038E0F39EC0011124FC01EC0FFD1FEB51CD
:10143000FE4F2081222379F020917702E0917602FD
:1014400038E0E39FF0011124E20FF11DEB5AFE4F4B
:1014500020812E3FD9F48C0F9D1FFC01EB5AFE4FCB
:1014600060816F3F19F480EC90E004C0611105C009
:101470008EEB90E00E945C0F12C06E3F81F070E036
:1014800080E090E04AE00E947D0F09C08CEB90E084
:101490000E945C0F80913E018F5F80933E01F39428
:1014A000AECF2196085F1F4FC830D10509F0A6CFF7
:1014B00090913E0180913F01981347C00E94490FCF
:1014C00010924C0180914C01883080F510924B01B4
:1014D00020914B019091750280914C01291710F5D4
:1014E00096E0299F900111243093E4062093E306AF
:1014F00028E0829FC00111249093E6068093E506C0
:101500008CEA90E00E945C0F0E94A20E6AE070E0FC
:1015100080E090E00E94860680914B018D5F809371
:101520004B01D6CF8F5F80934C01CCCF68E873E13D
:1015300080E090E00E94860680910001863019F0DC
:101540008F5F809300010E94BE08C0E0D0E021E0E0
:10155000AE016CE670E081ED96E00E94B107219645
:10156000C134D105A1F7CEE6D0E0D093E406C09314
:10157000E30688E190E09093E6068093E5066091AB
:101580003E0170E080E090E04AE00E947D0F84E739
:1015900090E09093E4068093E30680E290E09093DD
:1015A000E6068093E5068AEB90E00E945C0FD093FC
:1015B000E406C093E30688E290E09093E606809309
:1015C000E50660913F0170E080E090E04AE00E9413
:1015D0007D0F809177022091760236E0239FA00153
:1015E00011245093E4064093E30690E0AC0133E00D
:1015F000440F551F3A95E1F75093E6064093E506F0
:1016000038E0239F800D911D1124FC01EB5AFE4F01
:1016100080818E3F79F488EB90E00E945C0FD0933C
:10162000E406C093E3061092E6061092E50685EB09
:1016300090E00EC083EB90E00E945C0FD093E40634
:10164000C093E3061092E6061092E50680EB90E068
:101650000E945C0F8EE690E09093E4068093E30690
:1016600088E090E09093E6068093E506C0905101F3
:10167000D0905201E0905301F09054012FB7F894AC
:1016800060914D0170914E0180914F0190915001F8
:101690002FBF2CE2C20E21E0D21EE11CF11C28EE6D
:1016A00033E040E050E00E94A613C701B601621B80
:1016B000730B840B950B4AE00E947D0FDF91CF9155
:1016C0001F910F91FF90EF90DF90CF900C94A20E9E
:1016D0000E94A215CF92DF92EF92FF920F931F9379
:1016E000CF93DF931F92CDB7DEB7182F062FE42ECE
:1016F000862F880F8E5F99830E944B0683E00E949D
:101700004B06F12EC12E9981D92E8C2D8F19801761
:1017100098F4F601E7FE02C0849101C080810E9426
:101720004B06182F80E00E944B068123FFEFCF1A53
:10173000DF0A8111EACF01C081E00F90DF91CF91E4
:101740001F910F91FF90EF90DF90CF900895DF925F
:10175000EF92FF920F931F93CF93DF93D82E8A01BE
:101760007B01E40EF51EEB01CE15DF0571F0D7FE0F
:1017700003C0FE01849101C088810E944B0621961E
:101780008111F2CF8FEF9FEF01C0C801DF91CF91A0
:101790001F910F91FF90EF90DF9008950F931F938B
:1017A000CF93DF931F92CDB7DEB782E0898342E407
:1017B00050E06AEC75E080E80E94A70B0E940910D7
:1017C000DC0112960D911C9113970115110569F01A
:1017D000D801ED91FC910280F381E02DBE016F5F95
:1017E0007F4FC801099597FF07C089810F90DF914E
:1017F000CF911F910F910895F80100851185E5CFD4
:101800001F920F920FB60F9211248F939F93809186
:10181000E1009091E100937F9093E10083FF0FC07E
:101820001092E90091E09093EB001092EC0092E3AB
:101830009093ED0010927C0298E09093F00082FF6C
:1018400020C093E09093E9009091F200992319F061
:101850009AE39093E80090914901992339F090918F
:101860004901915090934901992389F190917B020C
:10187000992339F090917B02915090937B029923A8
:1018800041F184FF10C08091E2008E7E81608093E0
:10189000E2008091E1008F7E8093E10080914A0117
:1018A0008E7E806111C080FF16C08091E2008E7E26
:1018B00080618093E2008091E1008E7E8093E10060
:1018C00080914A018E7E816080934A0104C05D9AB6
:1018D000CDCF289AD6CF9F918F910F900FBE0F90AA
:1018E0001F9018951F920F920FB60F921124CF924E
:1018F000DF92EF92FF920F931F932F933F934F939B
:101900005F936F937F938F939F93AF93BF93EF9367
:10191000FF93CF93DF93CDB7DEB76C97DEBFCDBF1C
:101920001092E9008091E80083FFEDC168E0CE01EC
:1019300045960E94790682EF8093E8008D8987FFA3
:1019400005C09091E80090FFFCCF03C09EEF9093FC
:10195000E800982F907609F0C6C09E892F89188DCF
:1019600091110CC0803829F4809179028093F100A4
:1019700002C01092F1001092F10048C1422F50E0D5
:10198000512B913051F4811141C14130510509F081
:101990003DC1809179028D7F0BC0933061F481113C
:1019A00035C14130510509F031C180917902826021
:1019B000809379022BC1953041F48091E80080FF3B
:1019C000FCCF20682093E30021C1963009F05FC06E
:1019D000EB8CFC8C1092E9001092480110924701A8
:1019E000123091F510924601109245010E94CE0BE3
:1019F00099E0BE016F5F7F4FDB01E92F1D92EA95F1
:101A0000E9F799831A8391E09E8390EA98879AEF89
:101A100099872091470130914801275F3F4F3C83D0
:101A20002B838D831092E900109248011092470198
:101A3000F0924601E092450149E050E080E00E94CA
:101A4000A70B0E94CE0BE2C0F0924601E092450146
:101A50000E940910DC011296ED90FC901397E1149E
:101A6000F10409F4C0C0D701ED91FC910480F58127
:101A7000E02DBE016B5E7F4FC7010995009719F0FD
:101A80000CF0C4C0C7C0F701E084F184E8CF973000
:101A900009F4C0C0983021F481E08093F100B6C011
:101AA000993009F0B3C0837009F0B4C0E2E1F1E00D
:101AB00081E021E036E39081992361F08093E90091
:101AC0002093EB0091919093EC003093ED008F5FA9
:101AD000873089F78EE78093EA001092EA008F89B9
:101AE00080937C0293C08B8D9C8D1092E9001092A4
:101AF0004801109247019093460180934501898DDA
:101B0000811156C08E899D89913A59F4813209F02C
:101B100081C047E050E065E071E080E00E94A70BE3
:101B200075C0913209F076C0833289F4888D90E0D7
:101B3000982F88272F89822BA0E0B0E080930101A5
:101B400090930201A0930301B09304015FC080321F
:101B500069F48091E80082FFFCCF67E085E091E0C6
:101B60000E9479068BEF8093E80006C0823209F06C
:101B70004DC08F8980930C0180917802882319F0E1
:101B8000EEEFFAE002C0E0E0F8E08091050190910C
:101B90000601A0910701B0910801803B9440A10586
:101BA000B10509F07BC080910C0180FF93C076C025
:101BB0000E940910DC0112960D911C9113970115DA
:101BC000110541F1D801ED91FC910190F081E02DDA
:101BD000BE016B5E7F4FC8010995811117C0F801E6
:101BE00000851185ECCF113009F44EC0133091F40B
:101BF0008F89882309F445C0823081F440E860E190
:101C00008EE296E00E946A0B882321F08EEF80938B
:101C1000E80079C081E28093EB0075C0813029F43F
:101C200040E86BE082E296E0EDCF833099F70E94C6
:101C30000910DC011296ED90FC9013978E010F5F56
:101C40001F4F6801E114F10479F0D701ED91FC9187
:101C50000680F781E02DB801C7010995080F111D15
:101C6000F701E084F184EECFD8011C92F6010190D7
:101C70000020E9F73197BF016C197D0940E0C601EA
:101C8000C1CF6CE076E002C060E176E061157105DD
:101C900009F2FB01449150E080E840CF0FB6F89480
:101CA000A895809160008861809360001092600028
:101CB0000FBEA895EE3F2AE0F20739F08091FE0AA8
:101CC0009091FF0A91838083A1CF1092FF0A109216
:101CD000FE0A9CCFEE3F8AE0F80731F080819181C7
:101CE0009093FF0A8093FE0A87E797E791838083AA
:101CF0009BE088E10FB6F894A895809360000FBE32
:101D00009093600083CF6C960FB6F894DEBF0FBE41
:101D1000CDBFDF91CF91FF91EF91BF91AF919F9197
:101D20008F917F916F915F914F913F912F911F9173
:101D30000F91FF90EF90DF90CF900F900FBE0F901C
:101D40001F90189580917D028EBDEEE7F2E08191A3
:101D50000DB407FEFDCF8EBD86E0ED37F807B9F76D
:101D60000DB407FEFDCF08952F923F924F925F92E0
:101D70006F927F928F929F92AF92BF92CF92DF929B
:101D8000EF92FF920F931F93CF93DF9300D000D079
:101D9000CDB7DEB7E22EF12C9C012E0D3F1D37FD95
:101DA00061C0803891050CF05DC010E09B01200FF0
:101DB000311F37FD57C0603471050CF053C03A0134
:101DC0002B011C01C70107969C0193E035952795CF
:101DD0009A95E1F73A832983A12CB12CC12CD12CFF
:101DE000C016D1060CF03EC01C821B824601840C3A
:101DF000951CEB81FC81EE15FF0564F5EB81FC8100
:101E000083E0F595E7958A95E1F7EA0DFB1DE60D70
:101E1000F71DE491F0E08B819C818770992720E881
:101E200030E002C0359527958A95E2F7E223F32347
:101E3000EF2B51F021E0A4016B817C81620D731DB9
:101E400081ED96E00E94B1078B819C8101969C8375
:101E50008B83CFCFFFEFCF1ADF0A29813A81A20E01
:101E6000B31EBECF0F900F900F900F90DF91CF91C8
:101E70001F910F91FF90EF90DF90CF90BF90AF90A8
:101E80009F908F907F906F905F904F903F902F909A
:101E9000089580E0EDE7F2E081118FEF0024819357
:101EA0008193819381930394D1F7EDECF6E0118E49
:101EB000108E178A168A08950F931F93CF93DF937E
:101EC0008C01C0E0D0E0F801EC0FFD1F64916623A7
:101ED00071F0E091CD06F091CE060190F081E02DF9
:101EE0008DEC96E00995892B11F02196ECCFCE016F
:101EF000DF91CF911F910F9108958F929F92AF9292
:101F0000BF920F931F93CF93DF93CDB7DEB7A19707
:101F10000FB6F894DEBF0FBECDBF19A2423008F451
:101F20004AE08E010F5D1F4F842E912CA12CB12C05
:101F3000A50194010E94A613E62FB901CA01015020
:101F40001109EA3014F4E05D01C0E95CD801EC93BA
:101F5000232B242B252B61F70115110571F0F801B6
:101F600001900020E9F73197AF01401B510BB801F8
:101F70008DEC96E00E94750502C080E090E0A1968D
:101F80000FB6F894DEBF0FBECDBFDF91CF911F918A
:101F90000F91BF90AF909F908F900895FC0180911A
:101FA0007C02811103C08FEF9FEF08959FB7F894D3
:101FB00082E08093E9002091F20030E012161306CF
:101FC00014F421E030E02115310559F0289884E619
:101FD00080937B028091F10080838091F2008823BE
:101FE00019F09FBFC90108958BE68093E800F9CFEF
:101FF0002FB7F89483E08093E9009091E800892F4F
:10200000807295FF04C09091F20080E4891B2FBF7D
:1020100008958091EF0681110DC082E08093EB0658
:1020200084E08093EC061092EE061092ED0681E0BB
:102030008093EF068BEE96E008950F931F93CF9356
:10204000DF938C0181E090E00E946C1380FF31C02F
:102050008AE090E00E946C139FEF980F9E3F48F536
:1020600022E330E0D80157963C932E93569728E30D
:1020700030E059963C932E935897CBE0D0E0D801AE
:10208000ED91FC910190F081E02D682FC801099538
:10209000CE010E946C132196C131D10581F70E94B7
:1020A000A20E88EE93E0DF91CF911F910F910C94D7
:1020B0008F07DF91CF911F910F91089504970C9492
:1020C0001D10789484B5826084BD84B5816084BD20
:1020D00085B5826085BD85B5816085BD80916E00C6
:1020E000816080936E0010928100809181008260F7
:1020F0008093810080918100816080938100809134
:102100008000816080938000809191008260809344
:102110009100809191008160809391008091900066
:102120008160809390008091C10084608093C100A1
:102130008091C10082608093C1008091C100816064
:102140008093C1008091C30081608093C30080911F
:10215000C00082608093C0008091C2008160809343
:10216000C20080917A00846080937A0080917A0026
:10217000826080937A0080917A00816080937A00F7
:1021800080917A00806880937A0010927C0210928D
:10219000790210924A018091D70081608093D70024
:1021A00080EA8093D80089B5806189BD89B5826055
:1021B00089BD09B400FEFDCF61E070E080E090E0F1
:1021C0000E9486068091D8008F7C80618093D80021
:1021D0008091E000807F8093E0008091E1008E7E1E
:1021E0008093E1008DE08093E200559A209AEEEF13
:1021F000FFE7859194918B3F9C4D19F481E080938A
:10220000780281EC80937C0085B1806F85B9249839
:1022100084B1866E84B95E9A5F988AB1806D8AB9FE
:10222000769A6E9881B3806F81BB899880B38D70E8
:1022300080BB80E58CBD81E08DBD85E090E00E9493
:102240008F075F9A85E090E00E948F075E985C9808
:10225000EFE3F6E08DE08E0F94919EBD00000DB48B
:1022600007FEFDCF31968E13F7CF5C9A81E88093FD
:10227000640081E0809365008FEF9FEF90938A0662
:1022800080938906CFE3D0E00E94490F08E028E45C
:102290004CE45AE0BE018AE190E00E94B40EBE0117
:1022A000685F7F4F00E420E84CE456E080E090E077
:1022B0000E94B40E0E94A20E2197C73F2FEFD207B3
:1022C00019F768EE73E080E090E00E9486060E94B5
:1022D000BE08442443948FEF80937A020E949407AF
:1022E00087FD10927A020E94940784FD40927A0240
:1022F0000E94940785FF03C082E080937A020E94C7
:10230000940786FF03C083E080937A020E949407BB
:1023100083FF03C084E080937A020E94940782FFC7
:1023200003C085E080937A0280917A028230D9F0EE
:1023300028F4882341F0813069F0FCC08330E1F05B
:10234000843051F1F7C080917702882309F4F2C0FC
:10235000815006C080917702873009F4EBC08F5F0F
:1023600080937702E7C080917602882309F4E2C067
:10237000815080937602DEC020917602422F50E099
:102380008091750290E00197481759070CF0D2C070
:102390002F5F20937602CEC0E09176028091770283
:1023A00048E0E49FF0011124E80FF11DDF01AB517B
:1023B000BE4F1C92EB5AFE4F90805FEF95120DC0FE
:1023C0008EEF80830E94E60968E873E180E090E088
:1023D0000E9486060E94BE08ADC09110ABC08090DE
:1023E00075025F010DEF502E082D10E0F5015082AF
:1023F000612C80E090E0712C781409F444C0C72C63
:10240000D12C2FEF3FEFFC0148E0749EE00DF11D51
:1024100011247F0158E0E51AF108AF014B5A5E4FD5
:102420001A01D701A20FB31FAB5ABE4F4FEF5FEF98
:10243000B901680F791FEA01CC0DDD1DCF3FFFEF19
:10244000DF07A1F06F3FEFEF7E0781F0C017D107E4
:102450006CF46830710551F0CC91C11107C0F101E5
:10246000C081CD3F19F4CC93662463944F5F5F4FD6
:10247000189642305105F9F62F5F3F4F2230310553
:1024800081F67394B9CF01968830910509F0B3CFE6
:102490006110ACCF882DC82CD12C28E0921609F4FD
:1024A00045C0A92DB0E0BD0140E050E04815D8F589
:1024B000FB01EB5AFE4F80818D3F81F510828FEF3B
:1024C0009FEF2FEF3FEFEC01CA0FDB1F7C01E60E01
:1024D000F71EF901E40FF51FEF3F1FEFF107A9F019
:1024E000CF3F1FEFD10789F0EC15FD0574F4C8301C
:1024F000D10559F0F90113E0EE0FFF1F1A95E1F72E
:10250000EE0DFF1DEB51FE4F10822F5F3F4F22302B
:102510003105F9F601968230910599F64F5F5F4FCC
:10252000685F7F4FC3CF9394882DB7CF80934B01C3
:1025300090924C012FB7F89460914D0170914E012B
:1025400080914F01909150012FBF0E94781420E09C
:1025500030E04AE754E40E94D7136B017C0180917C
:10256000510190915201A0915301B0915401BC01CD
:10257000CD01645D7E4F8F4F9F4F0E9478149B0169
:10258000AC01C701B6010E94061587FD0AC00E9472
:10259000E60968E873E180E090E00E9486060E9408
:1025A000BE080E94E60980E090E0892B09F493CEF2
:1025B0000E94000090CEEDE7F6E01382128288EED2
:1025C00093E0A0E0B0E084839583A683B7838CE199
:1025D00091E0918380838FEF9FEF95878487EDEC67
:1025E000F6E0138212821186128620E123879087FB
:1025F0008783108A118A128A138A148A8EE291E0E4
:10260000918380838CE391E095838483178A168A73
:10261000118E108E81E0828F138E848F158E089517
:102620008F929F92AF92BF92CF92DF92EF92FF92E2
:10263000CF93DF93EC01688179818A819B81611559
:1026400071058105910521F464E279ED8BE597E050
:102650002DE133EF41E050E00E94741349015A012B
:102660009B01AC01A7EAB1E40E9493136B017C01CA
:10267000ACEEB4EFA50194010E94A113DC01CB01E3
:102680008C0D9D1DAE1DBF1DB7FF03C00197A10995
:10269000B04888839983AA83BB83BC01CD019F770F
:1026A000DF91CF91FF90EF90DF90CF90BF90AF90F0
:1026B0009F908F9008950E94101308958DE091E0EF
:1026C0000E941013089560930D0170930E01809382
:1026D0000F01909310010895F999FECF92BD81BD2D
:1026E000F89A992780B50895052E97FB1EF400945B
:1026F0000E948B1357FD07D00E94A61307FC03D03E
:102700004EF40C948B1350954095309521953F4F86
:102710004F4F5F4F089590958095709561957F4FCD
:102720008F4F9F4F08950E94C813A59F900DB49F8F
:10273000900DA49F800D911D11240895B7FF0C9456
:1027400093130E949313821B930B0895A1E21A2EF8
:10275000AA1BBB1BFD010DC0AA1FBB1FEE1FFF1F45
:10276000A217B307E407F50720F0A21BB30BE40B95
:10277000F50B661F771F881F991F1A9469F76095DC
:102780007095809590959B01AC01BD01CF01089596
:10279000A29FB001B39FC001A39F700D811D1124A2
:1027A000911DB29F700D811D1124911D08950E94ED
:1027B000EB130C94CC140E94C51458F00E94BE1464
:1027C00040F029F45F3F29F00C94B51451110C949A
:1027D00000150C94BB140E94DD1468F39923B1F327
:1027E000552391F3951B550BBB27AA276217730737
:1027F000840738F09F5F5F4F220F331F441FAA1FCB
:10280000A9F335D00E2E3AF0E0E832D09150504086
:10281000E695001CCAF72BD0FE2F29D0660F771F34
:10282000881FBB1F261737074807AB07B0E809F01A
:10283000BB0B802DBF01FF2793585F4F3AF09E3F9F
:10284000510578F00C94B5140C9400155F3FE4F337
:10285000983ED4F3869577956795B795F7959F5FE2
:10286000C9F7880F911D9695879597F90895E1E02E
:10287000660F771F881FBB1F621773078407BA078D
:1028800020F0621B730B840BBA0BEE1F88F7E095E8
:1028900008950E94E51488F09F5798F0B92F992762
:1028A000B751B0F0E1F0660F771F881F991F1AF03B
:1028B000BA95C9F714C0B13091F00E94FF14B1E08D
:1028C00008950C94FF14672F782F8827B85F39F08C
:1028D000B93FCCF3869577956795B395D9F73EF4D4
:1028E00090958095709561957F4F8F4F9F4F08957C
:1028F000E89409C097FB3EF490958095709561959A
:102900007F4F8F4F9F4F9923A9F0F92F96E9BB274F
:102910009395F695879577956795B795F111F8CFCB
:10292000FAF4BB0F11F460FF1BC06F5F7F4F8F4F36
:102930009F4F16C0882311F096E911C0772321F02C
:102940009EE8872F762F05C0662371F096E8862FC4
:1029500070E060E02AF09A95660F771F881FDAF71B
:10296000880F9695879597F9089597F99F6780E85E
:1029700070E060E008959FEF80EC089500240A94D1
:102980001616170618060906089500240A9412164A
:102990001306140605060895092E0394000C11F47D
:1029A000882352F0BB0F40F4BF2B11F460FF04C02A
:1029B0006F5F7F4F8F4F9F4F089557FD9058440F83
:1029C000551F59F05F3F71F04795880F97FB991F8E
:1029D00061F09F3F79F0879508951216130614064B
:1029E000551FF2CF4695F1DF08C0161617061806D8
:1029F000991FF1CF86957105610508940895E894B3
:102A0000BB2766277727CB0197F908950E94781591
:102A100008F48FEF08950E941E150C94CC140E94A8
:102A2000BE1438F00E94C51420F0952311F00C94C8
:102A3000B5140C94BB1411240C9400150E94DD14E1
:102A400070F3959FC1F3950F50E0551F629FF00101
:102A5000729FBB27F00DB11D639FAA27F00DB11D1A
:102A6000AA1F649F6627B00DA11D661F829F2227A3
:102A7000B00DA11D621F739FB00DA11D621F839F2A
:102A8000A00D611D221F749F3327A00D611D231F00
:102A9000849F600D211D822F762F6A2F11249F574E
:102AA00050409AF0F1F088234AF0EE0FFF1FBB1F51
:102AB000661F771F881F91505040A9F79E3F510510
:102AC00080F00C94B5140C9400155F3FE4F3983E2D
:102AD000D4F3869577956795B795F795E7959F5FBA
:102AE000C1F7FE2B880F911D9695879597F908954C
:102AF000990F0008550FAA0BE0E8FEEF161617060F
:102B0000E807F907C0F012161306E407F50798F076
:102B1000621B730B840B950B39F40A2661F0232B8F
:102B2000242B252B21F408950A2609F4A140A6950B
:102B30008FEF811D811D0895EE0FFF1F0590F49109
:102B4000E02D099481E090E0F8940C94A715F89496
:022B5000FFCFB5
:102B520001FFFFFFFF00E100000000000001000094
:102B62000000C1808100000000000000A005C00636
:102B72000506B605C1052D06090600000000CF07AF
:0E2B82007505020601061D10FCFF00005E1026
:00000001FF
